{
  "_format": "hh-sol-artifact-1",
  "contractName": "Pepe",
  "sourceName": "backend/contracts/Pepe.sol",
  "abi": [
    {
      "inputs": [],
      "stateMutability": "nonpayable",
      "type": "constructor"
    },
    {
      "anonymous": false,
      "inputs": [
        {
          "indexed": true,
          "internalType": "address",
          "name": "owner",
          "type": "address"
        },
        {
          "indexed": true,
          "internalType": "address",
          "name": "approved",
          "type": "address"
        },
        {
          "indexed": true,
          "internalType": "uint256",
          "name": "tokenId",
          "type": "uint256"
        }
      ],
      "name": "Approval",
      "type": "event"
    },
    {
      "anonymous": false,
      "inputs": [
        {
          "indexed": true,
          "internalType": "address",
          "name": "owner",
          "type": "address"
        },
        {
          "indexed": true,
          "internalType": "address",
          "name": "operator",
          "type": "address"
        },
        {
          "indexed": false,
          "internalType": "bool",
          "name": "approved",
          "type": "bool"
        }
      ],
      "name": "ApprovalForAll",
      "type": "event"
    },
    {
      "anonymous": false,
      "inputs": [
        {
          "indexed": false,
          "internalType": "uint256",
          "name": "_fromTokenId",
          "type": "uint256"
        },
        {
          "indexed": false,
          "internalType": "uint256",
          "name": "_toTokenId",
          "type": "uint256"
        }
      ],
      "name": "BatchMetadataUpdate",
      "type": "event"
    },
    {
      "anonymous": false,
      "inputs": [
        {
          "indexed": false,
          "internalType": "uint256",
          "name": "_tokenId",
          "type": "uint256"
        }
      ],
      "name": "MetadataUpdate",
      "type": "event"
    },
    {
      "anonymous": false,
      "inputs": [
        {
          "indexed": true,
          "internalType": "address",
          "name": "from",
          "type": "address"
        },
        {
          "indexed": true,
          "internalType": "address",
          "name": "to",
          "type": "address"
        },
        {
          "indexed": true,
          "internalType": "uint256",
          "name": "tokenId",
          "type": "uint256"
        }
      ],
      "name": "Transfer",
      "type": "event"
    },
    {
      "inputs": [
        {
          "internalType": "address",
          "name": "to",
          "type": "address"
        },
        {
          "internalType": "uint256",
          "name": "tokenId",
          "type": "uint256"
        }
      ],
      "name": "approve",
      "outputs": [],
      "stateMutability": "nonpayable",
      "type": "function"
    },
    {
      "inputs": [
        {
          "internalType": "address",
          "name": "owner",
          "type": "address"
        }
      ],
      "name": "balanceOf",
      "outputs": [
        {
          "internalType": "uint256",
          "name": "",
          "type": "uint256"
        }
      ],
      "stateMutability": "view",
      "type": "function"
    },
    {
      "inputs": [
        {
          "internalType": "uint256",
          "name": "tokenId",
          "type": "uint256"
        }
      ],
      "name": "getApproved",
      "outputs": [
        {
          "internalType": "address",
          "name": "",
          "type": "address"
        }
      ],
      "stateMutability": "view",
      "type": "function"
    },
    {
      "inputs": [
        {
          "internalType": "address",
          "name": "owner",
          "type": "address"
        },
        {
          "internalType": "address",
          "name": "operator",
          "type": "address"
        }
      ],
      "name": "isApprovedForAll",
      "outputs": [
        {
          "internalType": "bool",
          "name": "",
          "type": "bool"
        }
      ],
      "stateMutability": "view",
      "type": "function"
    },
    {
      "inputs": [
        {
          "internalType": "string",
          "name": "_tokenURI",
          "type": "string"
        }
      ],
      "name": "mint",
      "outputs": [
        {
          "internalType": "uint256",
          "name": "",
          "type": "uint256"
        }
      ],
      "stateMutability": "nonpayable",
      "type": "function"
    },
    {
      "inputs": [],
      "name": "name",
      "outputs": [
        {
          "internalType": "string",
          "name": "",
          "type": "string"
        }
      ],
      "stateMutability": "view",
      "type": "function"
    },
    {
      "inputs": [
        {
          "internalType": "uint256",
          "name": "tokenId",
          "type": "uint256"
        }
      ],
      "name": "ownerOf",
      "outputs": [
        {
          "internalType": "address",
          "name": "",
          "type": "address"
        }
      ],
      "stateMutability": "view",
      "type": "function"
    },
    {
      "inputs": [
        {
          "internalType": "address",
          "name": "from",
          "type": "address"
        },
        {
          "internalType": "address",
          "name": "to",
          "type": "address"
        },
        {
          "internalType": "uint256",
          "name": "tokenId",
          "type": "uint256"
        }
      ],
      "name": "safeTransferFrom",
      "outputs": [],
      "stateMutability": "nonpayable",
      "type": "function"
    },
    {
      "inputs": [
        {
          "internalType": "address",
          "name": "from",
          "type": "address"
        },
        {
          "internalType": "address",
          "name": "to",
          "type": "address"
        },
        {
          "internalType": "uint256",
          "name": "tokenId",
          "type": "uint256"
        },
        {
          "internalType": "bytes",
          "name": "data",
          "type": "bytes"
        }
      ],
      "name": "safeTransferFrom",
      "outputs": [],
      "stateMutability": "nonpayable",
      "type": "function"
    },
    {
      "inputs": [
        {
          "internalType": "address",
          "name": "operator",
          "type": "address"
        },
        {
          "internalType": "bool",
          "name": "approved",
          "type": "bool"
        }
      ],
      "name": "setApprovalForAll",
      "outputs": [],
      "stateMutability": "nonpayable",
      "type": "function"
    },
    {
      "inputs": [
        {
          "internalType": "bytes4",
          "name": "interfaceId",
          "type": "bytes4"
        }
      ],
      "name": "supportsInterface",
      "outputs": [
        {
          "internalType": "bool",
          "name": "",
          "type": "bool"
        }
      ],
      "stateMutability": "view",
      "type": "function"
    },
    {
      "inputs": [],
      "name": "symbol",
      "outputs": [
        {
          "internalType": "string",
          "name": "",
          "type": "string"
        }
      ],
      "stateMutability": "view",
      "type": "function"
    },
    {
      "inputs": [],
      "name": "tokenCounter",
      "outputs": [
        {
          "internalType": "uint256",
          "name": "",
          "type": "uint256"
        }
      ],
      "stateMutability": "view",
      "type": "function"
    },
    {
      "inputs": [
        {
          "internalType": "uint256",
          "name": "tokenId",
          "type": "uint256"
        }
      ],
      "name": "tokenURI",
      "outputs": [
        {
          "internalType": "string",
          "name": "",
          "type": "string"
        }
      ],
      "stateMutability": "view",
      "type": "function"
    },
    {
      "inputs": [
        {
          "internalType": "address",
          "name": "from",
          "type": "address"
        },
        {
          "internalType": "address",
          "name": "to",
          "type": "address"
        },
        {
          "internalType": "uint256",
          "name": "tokenId",
          "type": "uint256"
        }
      ],
      "name": "transferFrom",
      "outputs": [],
      "stateMutability": "nonpayable",
      "type": "function"
    }
  ],
  "bytecode": "0x608060405260006007553480156200001657600080fd5b506040518060400160405280600881526020017f5065706520566f7a0000000000000000000000000000000000000000000000008152506040518060400160405280600481526020017f506570650000000000000000000000000000000000000000000000000000000081525081600090805190602001906200009b929190620000bd565b508060019080519060200190620000b4929190620000bd565b505050620001d2565b828054620000cb906200019c565b90600052602060002090601f016020900481019282620000ef57600085556200013b565b82601f106200010a57805160ff19168380011785556200013b565b828001600101855582156200013b579182015b828111156200013a5782518255916020019190600101906200011d565b5b5090506200014a91906200014e565b5090565b5b80821115620001695760008160009055506001016200014f565b5090565b7f4e487b7100000000000000000000000000000000000000000000000000000000600052602260045260246000fd5b60006002820490506001821680620001b557607f821691505b60208210811415620001cc57620001cb6200016d565b5b50919050565b612a2480620001e26000396000f3fe608060405234801561001057600080fd5b50600436106100f55760003560e01c806370a0823111610097578063c87b56dd11610066578063c87b56dd14610282578063d082e381146102b2578063d85d3d27146102d0578063e985e9c514610300576100f5565b806370a08231146101fc57806395d89b411461022c578063a22cb4651461024a578063b88d4fde14610266576100f5565b8063095ea7b3116100d3578063095ea7b31461017857806323b872dd1461019457806342842e0e146101b05780636352211e146101cc576100f5565b806301ffc9a7146100fa57806306fdde031461012a578063081812fc14610148575b600080fd5b610114600480360381019061010f9190611b22565b610330565b6040516101219190611b6a565b60405180910390f35b610132610391565b60405161013f9190611c1e565b60405180910390f35b610162600480360381019061015d9190611c76565b610423565b60405161016f9190611ce4565b60405180910390f35b610192600480360381019061018d9190611d2b565b610469565b005b6101ae60048036038101906101a99190611d6b565b610581565b005b6101ca60048036038101906101c59190611d6b565b6105e1565b005b6101e660048036038101906101e19190611c76565b610601565b6040516101f39190611ce4565b60405180910390f35b61021660048036038101906102119190611dbe565b610688565b6040516102239190611dfa565b60405180910390f35b610234610740565b6040516102419190611c1e565b60405180910390f35b610264600480360381019061025f9190611e41565b6107d2565b005b610280600480360381019061027b9190611fb6565b6107e8565b005b61029c60048036038101906102979190611c76565b61084a565b6040516102a99190611c1e565b60405180910390f35b6102ba61095d565b6040516102c79190611dfa565b60405180910390f35b6102ea60048036038101906102e591906120da565b610963565b6040516102f79190611dfa565b60405180910390f35b61031a60048036038101906103159190612123565b61099f565b6040516103279190611b6a565b60405180910390f35b6000634906490660e01b7bffffffffffffffffffffffffffffffffffffffffffffffffffffffff1916827bffffffffffffffffffffffffffffffffffffffffffffffffffffffff1916148061038a575061038982610a33565b5b9050919050565b6060600080546103a090612192565b80601f01602080910402602001604051908101604052809291908181526020018280546103cc90612192565b80156104195780601f106103ee57610100808354040283529160200191610419565b820191906000526020600020905b8154815290600101906020018083116103fc57829003601f168201915b5050505050905090565b600061042e82610b15565b6004600083815260200190815260200160002060009054906101000a900473ffffffffffffffffffffffffffffffffffffffff169050919050565b600061047482610601565b90508073ffffffffffffffffffffffffffffffffffffffff168373ffffffffffffffffffffffffffffffffffffffff1614156104e5576040517f08c379a00000000000000000000000000000000000000000000000000000000081526004016104dc90612236565b60405180910390fd5b8073ffffffffffffffffffffffffffffffffffffffff16610504610b60565b73ffffffffffffffffffffffffffffffffffffffff16148061053357506105328161052d610b60565b61099f565b5b610572576040517f08c379a0000000000000000000000000000000000000000000000000000000008152600401610569906122c8565b60405180910390fd5b61057c8383610b68565b505050565b61059261058c610b60565b82610c21565b6105d1576040517f08c379a00000000000000000000000000000000000000000000000000000000081526004016105c89061235a565b60405180910390fd5b6105dc838383610cb6565b505050565b6105fc838383604051806020016040528060008152506107e8565b505050565b60008061060d83610fb0565b9050600073ffffffffffffffffffffffffffffffffffffffff168173ffffffffffffffffffffffffffffffffffffffff16141561067f576040517f08c379a0000000000000000000000000000000000000000000000000000000008152600401610676906123c6565b60405180910390fd5b80915050919050565b60008073ffffffffffffffffffffffffffffffffffffffff168273ffffffffffffffffffffffffffffffffffffffff1614156106f9576040517f08c379a00000000000000000000000000000000000000000000000000000000081526004016106f090612458565b60405180910390fd5b600360008373ffffffffffffffffffffffffffffffffffffffff1673ffffffffffffffffffffffffffffffffffffffff168152602001908152602001600020549050919050565b60606001805461074f90612192565b80601f016020809104026020016040519081016040528092919081815260200182805461077b90612192565b80156107c85780601f1061079d576101008083540402835291602001916107c8565b820191906000526020600020905b8154815290600101906020018083116107ab57829003601f168201915b5050505050905090565b6107e46107dd610b60565b8383610fed565b5050565b6107f96107f3610b60565b83610c21565b610838576040517f08c379a000000000000000000000000000000000000000000000000000000000815260040161082f9061235a565b60405180910390fd5b6108448484848461115a565b50505050565b606061085582610b15565b600060066000848152602001908152602001600020805461087590612192565b80601f01602080910402602001604051908101604052809291908181526020018280546108a190612192565b80156108ee5780601f106108c3576101008083540402835291602001916108ee565b820191906000526020600020905b8154815290600101906020018083116108d157829003601f168201915b5050505050905060006108ff6111b6565b9050600081511415610915578192505050610958565b60008251111561094a5780826040516020016109329291906124b4565b60405160208183030381529060405292505050610958565b610953846111cd565b925050505b919050565b60075481565b60006007600081548092919061097890612507565b919050555061098933600754611235565b61099560075483611253565b6007549050919050565b6000600560008473ffffffffffffffffffffffffffffffffffffffff1673ffffffffffffffffffffffffffffffffffffffff16815260200190815260200160002060008373ffffffffffffffffffffffffffffffffffffffff1673ffffffffffffffffffffffffffffffffffffffff16815260200190815260200160002060009054906101000a900460ff16905092915050565b60007f80ac58cd000000000000000000000000000000000000000000000000000000007bffffffffffffffffffffffffffffffffffffffffffffffffffffffff1916827bffffffffffffffffffffffffffffffffffffffffffffffffffffffff19161480610afe57507f5b5e139f000000000000000000000000000000000000000000000000000000007bffffffffffffffffffffffffffffffffffffffffffffffffffffffff1916827bffffffffffffffffffffffffffffffffffffffffffffffffffffffff1916145b80610b0e5750610b0d826112fe565b5b9050919050565b610b1e81611368565b610b5d576040517f08c379a0000000000000000000000000000000000000000000000000000000008152600401610b54906123c6565b60405180910390fd5b50565b600033905090565b816004600083815260200190815260200160002060006101000a81548173ffffffffffffffffffffffffffffffffffffffff021916908373ffffffffffffffffffffffffffffffffffffffff160217905550808273ffffffffffffffffffffffffffffffffffffffff16610bdb83610601565b73ffffffffffffffffffffffffffffffffffffffff167f8c5be1e5ebec7d5bd14f71427d1e84f3dd0314c0f7b2291e5b200ac8c7c3b92560405160405180910390a45050565b600080610c2d83610601565b90508073ffffffffffffffffffffffffffffffffffffffff168473ffffffffffffffffffffffffffffffffffffffff161480610c6f5750610c6e818561099f565b5b80610cad57508373ffffffffffffffffffffffffffffffffffffffff16610c9584610423565b73ffffffffffffffffffffffffffffffffffffffff16145b91505092915050565b8273ffffffffffffffffffffffffffffffffffffffff16610cd682610601565b73ffffffffffffffffffffffffffffffffffffffff1614610d2c576040517f08c379a0000000000000000000000000000000000000000000000000000000008152600401610d23906125c2565b60405180910390fd5b600073ffffffffffffffffffffffffffffffffffffffff168273ffffffffffffffffffffffffffffffffffffffff161415610d9c576040517f08c379a0000000000000000000000000000000000000000000000000000000008152600401610d9390612654565b60405180910390fd5b610da983838360016113a9565b8273ffffffffffffffffffffffffffffffffffffffff16610dc982610601565b73ffffffffffffffffffffffffffffffffffffffff1614610e1f576040517f08c379a0000000000000000000000000000000000000000000000000000000008152600401610e16906125c2565b60405180910390fd5b6004600082815260200190815260200160002060006101000a81549073ffffffffffffffffffffffffffffffffffffffff02191690556001600360008573ffffffffffffffffffffffffffffffffffffffff1673ffffffffffffffffffffffffffffffffffffffff168152602001908152602001600020600082825403925050819055506001600360008473ffffffffffffffffffffffffffffffffffffffff1673ffffffffffffffffffffffffffffffffffffffff16815260200190815260200160002060008282540192505081905550816002600083815260200190815260200160002060006101000a81548173ffffffffffffffffffffffffffffffffffffffff021916908373ffffffffffffffffffffffffffffffffffffffff160217905550808273ffffffffffffffffffffffffffffffffffffffff168473ffffffffffffffffffffffffffffffffffffffff167fddf252ad1be2c89b69c2b068fc378daa952ba7f163c4a11628f55a4df523b3ef60405160405180910390a4610fab83838360016113af565b505050565b60006002600083815260200190815260200160002060009054906101000a900473ffffffffffffffffffffffffffffffffffffffff169050919050565b8173ffffffffffffffffffffffffffffffffffffffff168373ffffffffffffffffffffffffffffffffffffffff16141561105c576040517f08c379a0000000000000000000000000000000000000000000000000000000008152600401611053906126c0565b60405180910390fd5b80600560008573ffffffffffffffffffffffffffffffffffffffff1673ffffffffffffffffffffffffffffffffffffffff16815260200190815260200160002060008473ffffffffffffffffffffffffffffffffffffffff1673ffffffffffffffffffffffffffffffffffffffff16815260200190815260200160002060006101000a81548160ff0219169083151502179055508173ffffffffffffffffffffffffffffffffffffffff168373ffffffffffffffffffffffffffffffffffffffff167f17307eab39ab6107e8899845ad3d59bd9653f200f220920489ca2b5937696c318360405161114d9190611b6a565b60405180910390a3505050565b611165848484610cb6565b611171848484846113b5565b6111b0576040517f08c379a00000000000000000000000000000000000000000000000000000000081526004016111a790612752565b60405180910390fd5b50505050565b606060405180602001604052806000815250905090565b60606111d882610b15565b60006111e26111b6565b90506000815111611202576040518060200160405280600081525061122d565b8061120c8461154c565b60405160200161121d9291906124b4565b6040516020818303038152906040525b915050919050565b61124f828260405180602001604052806000815250611624565b5050565b61125c82611368565b61129b576040517f08c379a0000000000000000000000000000000000000000000000000000000008152600401611292906127e4565b60405180910390fd5b806006600084815260200190815260200160002090805190602001906112c2929190611a13565b507ff8e1a15aba9398e019f0b49df1a4fde98ee17ae345cb5f6b5e2c27f5033e8ce7826040516112f29190611dfa565b60405180910390a15050565b60007f01ffc9a7000000000000000000000000000000000000000000000000000000007bffffffffffffffffffffffffffffffffffffffffffffffffffffffff1916827bffffffffffffffffffffffffffffffffffffffffffffffffffffffff1916149050919050565b60008073ffffffffffffffffffffffffffffffffffffffff1661138a83610fb0565b73ffffffffffffffffffffffffffffffffffffffff1614159050919050565b50505050565b50505050565b60006113d68473ffffffffffffffffffffffffffffffffffffffff1661167f565b1561153f578373ffffffffffffffffffffffffffffffffffffffff1663150b7a026113ff610b60565b8786866040518563ffffffff1660e01b81526004016114219493929190612859565b602060405180830381600087803b15801561143b57600080fd5b505af192505050801561146c57506040513d601f19601f8201168201806040525081019061146991906128ba565b60015b6114ef573d806000811461149c576040519150601f19603f3d011682016040523d82523d6000602084013e6114a1565b606091505b506000815114156114e7576040517f08c379a00000000000000000000000000000000000000000000000000000000081526004016114de90612752565b60405180910390fd5b805181602001fd5b63150b7a0260e01b7bffffffffffffffffffffffffffffffffffffffffffffffffffffffff1916817bffffffffffffffffffffffffffffffffffffffffffffffffffffffff191614915050611544565b600190505b949350505050565b60606000600161155b846116a2565b01905060008167ffffffffffffffff81111561157a57611579611e8b565b5b6040519080825280601f01601f1916602001820160405280156115ac5781602001600182028036833780820191505090505b509050600082602001820190505b600115611619578080600190039150507f3031323334353637383961626364656600000000000000000000000000000000600a86061a8153600a8581611603576116026128e7565b5b049450600085141561161457611619565b6115ba565b819350505050919050565b61162e83836117f5565b61163b60008484846113b5565b61167a576040517f08c379a000000000000000000000000000000000000000000000000000000000815260040161167190612752565b60405180910390fd5b505050565b6000808273ffffffffffffffffffffffffffffffffffffffff163b119050919050565b600080600090507a184f03e93ff9f4daa797ed6e38ed64bf6a1f0100000000000000008310611700577a184f03e93ff9f4daa797ed6e38ed64bf6a1f01000000000000000083816116f6576116f56128e7565b5b0492506040810190505b6d04ee2d6d415b85acef8100000000831061173d576d04ee2d6d415b85acef81000000008381611733576117326128e7565b5b0492506020810190505b662386f26fc10000831061176c57662386f26fc100008381611762576117616128e7565b5b0492506010810190505b6305f5e1008310611795576305f5e100838161178b5761178a6128e7565b5b0492506008810190505b61271083106117ba5761271083816117b0576117af6128e7565b5b0492506004810190505b606483106117dd57606483816117d3576117d26128e7565b5b0492506002810190505b600a83106117ec576001810190505b80915050919050565b600073ffffffffffffffffffffffffffffffffffffffff168273ffffffffffffffffffffffffffffffffffffffff161415611865576040517f08c379a000000000000000000000000000000000000000000000000000000000815260040161185c90612962565b60405180910390fd5b61186e81611368565b156118ae576040517f08c379a00000000000000000000000000000000000000000000000000000000081526004016118a5906129ce565b60405180910390fd5b6118bc6000838360016113a9565b6118c581611368565b15611905576040517f08c379a00000000000000000000000000000000000000000000000000000000081526004016118fc906129ce565b60405180910390fd5b6001600360008473ffffffffffffffffffffffffffffffffffffffff1673ffffffffffffffffffffffffffffffffffffffff16815260200190815260200160002060008282540192505081905550816002600083815260200190815260200160002060006101000a81548173ffffffffffffffffffffffffffffffffffffffff021916908373ffffffffffffffffffffffffffffffffffffffff160217905550808273ffffffffffffffffffffffffffffffffffffffff16600073ffffffffffffffffffffffffffffffffffffffff167fddf252ad1be2c89b69c2b068fc378daa952ba7f163c4a11628f55a4df523b3ef60405160405180910390a4611a0f6000838360016113af565b5050565b828054611a1f90612192565b90600052602060002090601f016020900481019282611a415760008555611a88565b82601f10611a5a57805160ff1916838001178555611a88565b82800160010185558215611a88579182015b82811115611a87578251825591602001919060010190611a6c565b5b509050611a959190611a99565b5090565b5b80821115611ab2576000816000905550600101611a9a565b5090565b6000604051905090565b600080fd5b600080fd5b60007fffffffff0000000000000000000000000000000000000000000000000000000082169050919050565b611aff81611aca565b8114611b0a57600080fd5b50565b600081359050611b1c81611af6565b92915050565b600060208284031215611b3857611b37611ac0565b5b6000611b4684828501611b0d565b91505092915050565b60008115159050919050565b611b6481611b4f565b82525050565b6000602082019050611b7f6000830184611b5b565b92915050565b600081519050919050565b600082825260208201905092915050565b60005b83811015611bbf578082015181840152602081019050611ba4565b83811115611bce576000848401525b50505050565b6000601f19601f8301169050919050565b6000611bf082611b85565b611bfa8185611b90565b9350611c0a818560208601611ba1565b611c1381611bd4565b840191505092915050565b60006020820190508181036000830152611c388184611be5565b905092915050565b6000819050919050565b611c5381611c40565b8114611c5e57600080fd5b50565b600081359050611c7081611c4a565b92915050565b600060208284031215611c8c57611c8b611ac0565b5b6000611c9a84828501611c61565b91505092915050565b600073ffffffffffffffffffffffffffffffffffffffff82169050919050565b6000611cce82611ca3565b9050919050565b611cde81611cc3565b82525050565b6000602082019050611cf96000830184611cd5565b92915050565b611d0881611cc3565b8114611d1357600080fd5b50565b600081359050611d2581611cff565b92915050565b60008060408385031215611d4257611d41611ac0565b5b6000611d5085828601611d16565b9250506020611d6185828601611c61565b9150509250929050565b600080600060608486031215611d8457611d83611ac0565b5b6000611d9286828701611d16565b9350506020611da386828701611d16565b9250506040611db486828701611c61565b9150509250925092565b600060208284031215611dd457611dd3611ac0565b5b6000611de284828501611d16565b91505092915050565b611df481611c40565b82525050565b6000602082019050611e0f6000830184611deb565b92915050565b611e1e81611b4f565b8114611e2957600080fd5b50565b600081359050611e3b81611e15565b92915050565b60008060408385031215611e5857611e57611ac0565b5b6000611e6685828601611d16565b9250506020611e7785828601611e2c565b9150509250929050565b600080fd5b600080fd5b7f4e487b7100000000000000000000000000000000000000000000000000000000600052604160045260246000fd5b611ec382611bd4565b810181811067ffffffffffffffff82111715611ee257611ee1611e8b565b5b80604052505050565b6000611ef5611ab6565b9050611f018282611eba565b919050565b600067ffffffffffffffff821115611f2157611f20611e8b565b5b611f2a82611bd4565b9050602081019050919050565b82818337600083830152505050565b6000611f59611f5484611f06565b611eeb565b905082815260208101848484011115611f7557611f74611e86565b5b611f80848285611f37565b509392505050565b600082601f830112611f9d57611f9c611e81565b5b8135611fad848260208601611f46565b91505092915050565b60008060008060808587031215611fd057611fcf611ac0565b5b6000611fde87828801611d16565b9450506020611fef87828801611d16565b935050604061200087828801611c61565b925050606085013567ffffffffffffffff81111561202157612020611ac5565b5b61202d87828801611f88565b91505092959194509250565b600067ffffffffffffffff82111561205457612053611e8b565b5b61205d82611bd4565b9050602081019050919050565b600061207d61207884612039565b611eeb565b90508281526020810184848401111561209957612098611e86565b5b6120a4848285611f37565b509392505050565b600082601f8301126120c1576120c0611e81565b5b81356120d184826020860161206a565b91505092915050565b6000602082840312156120f0576120ef611ac0565b5b600082013567ffffffffffffffff81111561210e5761210d611ac5565b5b61211a848285016120ac565b91505092915050565b6000806040838503121561213a57612139611ac0565b5b600061214885828601611d16565b925050602061215985828601611d16565b9150509250929050565b7f4e487b7100000000000000000000000000000000000000000000000000000000600052602260045260246000fd5b600060028204905060018216806121aa57607f821691505b602082108114156121be576121bd612163565b5b50919050565b7f4552433732313a20617070726f76616c20746f2063757272656e74206f776e6560008201527f7200000000000000000000000000000000000000000000000000000000000000602082015250565b6000612220602183611b90565b915061222b826121c4565b604082019050919050565b6000602082019050818103600083015261224f81612213565b9050919050565b7f4552433732313a20617070726f76652063616c6c6572206973206e6f7420746f60008201527f6b656e206f776e6572206f7220617070726f76656420666f7220616c6c000000602082015250565b60006122b2603d83611b90565b91506122bd82612256565b604082019050919050565b600060208201905081810360008301526122e1816122a5565b9050919050565b7f4552433732313a2063616c6c6572206973206e6f7420746f6b656e206f776e6560008201527f72206f7220617070726f76656400000000000000000000000000000000000000602082015250565b6000612344602d83611b90565b915061234f826122e8565b604082019050919050565b6000602082019050818103600083015261237381612337565b9050919050565b7f4552433732313a20696e76616c696420746f6b656e2049440000000000000000600082015250565b60006123b0601883611b90565b91506123bb8261237a565b602082019050919050565b600060208201905081810360008301526123df816123a3565b9050919050565b7f4552433732313a2061646472657373207a65726f206973206e6f74206120766160008201527f6c6964206f776e65720000000000000000000000000000000000000000000000602082015250565b6000612442602983611b90565b915061244d826123e6565b604082019050919050565b6000602082019050818103600083015261247181612435565b9050919050565b600081905092915050565b600061248e82611b85565b6124988185612478565b93506124a8818560208601611ba1565b80840191505092915050565b60006124c08285612483565b91506124cc8284612483565b91508190509392505050565b7f4e487b7100000000000000000000000000000000000000000000000000000000600052601160045260246000fd5b600061251282611c40565b91507fffffffffffffffffffffffffffffffffffffffffffffffffffffffffffffffff821415612545576125446124d8565b5b600182019050919050565b7f4552433732313a207472616e736665722066726f6d20696e636f72726563742060008201527f6f776e6572000000000000000000000000000000000000000000000000000000602082015250565b60006125ac602583611b90565b91506125b782612550565b604082019050919050565b600060208201905081810360008301526125db8161259f565b9050919050565b7f4552433732313a207472616e7366657220746f20746865207a65726f2061646460008201527f7265737300000000000000000000000000000000000000000000000000000000602082015250565b600061263e602483611b90565b9150612649826125e2565b604082019050919050565b6000602082019050818103600083015261266d81612631565b9050919050565b7f4552433732313a20617070726f766520746f2063616c6c657200000000000000600082015250565b60006126aa601983611b90565b91506126b582612674565b602082019050919050565b600060208201905081810360008301526126d98161269d565b9050919050565b7f4552433732313a207472616e7366657220746f206e6f6e20455243373231526560008201527f63656976657220696d706c656d656e7465720000000000000000000000000000602082015250565b600061273c603283611b90565b9150612747826126e0565b604082019050919050565b6000602082019050818103600083015261276b8161272f565b9050919050565b7f45524337323155524953746f726167653a2055524920736574206f66206e6f6e60008201527f6578697374656e7420746f6b656e000000000000000000000000000000000000602082015250565b60006127ce602e83611b90565b91506127d982612772565b604082019050919050565b600060208201905081810360008301526127fd816127c1565b9050919050565b600081519050919050565b600082825260208201905092915050565b600061282b82612804565b612835818561280f565b9350612845818560208601611ba1565b61284e81611bd4565b840191505092915050565b600060808201905061286e6000830187611cd5565b61287b6020830186611cd5565b6128886040830185611deb565b818103606083015261289a8184612820565b905095945050505050565b6000815190506128b481611af6565b92915050565b6000602082840312156128d0576128cf611ac0565b5b60006128de848285016128a5565b91505092915050565b7f4e487b7100000000000000000000000000000000000000000000000000000000600052601260045260246000fd5b7f4552433732313a206d696e7420746f20746865207a65726f2061646472657373600082015250565b600061294c602083611b90565b915061295782612916565b602082019050919050565b6000602082019050818103600083015261297b8161293f565b9050919050565b7f4552433732313a20746f6b656e20616c7265616479206d696e74656400000000600082015250565b60006129b8601c83611b90565b91506129c382612982565b602082019050919050565b600060208201905081810360008301526129e7816129ab565b905091905056fea264697066735822122091439053c7880ea274131f611216b9df09744d17dedf672af54045ed96900d6f64736f6c63430008090033",
  "linkReferences": {},
  "deployedLinkReferences": {}
}